{
  "address": "0xa6F04242e0EaB7120b504e28AF3442C76F8821ed",
  "abi": [
    {
      "anonymous": false,
      "inputs": [
        {
          "indexed": true,
          "internalType": "address",
          "name": "previousOwner",
          "type": "address"
        },
        {
          "indexed": true,
          "internalType": "address",
          "name": "newOwner",
          "type": "address"
        }
      ],
      "name": "OwnershipTransferred",
      "type": "event"
    },
    {
      "anonymous": false,
      "inputs": [
        {
          "indexed": false,
          "internalType": "address",
          "name": "account",
          "type": "address"
        }
      ],
      "name": "Paused",
      "type": "event"
    },
    {
      "anonymous": false,
      "inputs": [
        {
          "indexed": false,
          "internalType": "address",
          "name": "account",
          "type": "address"
        }
      ],
      "name": "Unpaused",
      "type": "event"
    },
    {
      "inputs": [],
      "name": "BNB",
      "outputs": [
        {
          "internalType": "address",
          "name": "",
          "type": "address"
        }
      ],
      "stateMutability": "view",
      "type": "function"
    },
    {
      "inputs": [
        {
          "internalType": "uint256",
          "name": "",
          "type": "uint256"
        }
      ],
      "name": "campaigns",
      "outputs": [
        {
          "internalType": "contract IERC20",
          "name": "token",
          "type": "address"
        },
        {
          "internalType": "uint256",
          "name": "redeemableAt",
          "type": "uint256"
        },
        {
          "internalType": "bool",
          "name": "paused",
          "type": "bool"
        },
        {
          "internalType": "bytes32",
          "name": "merkleRoot",
          "type": "bytes32"
        },
        {
          "internalType": "uint256",
          "name": "redeemedAmount",
          "type": "uint256"
        },
        {
          "internalType": "string",
          "name": "uri",
          "type": "string"
        }
      ],
      "stateMutability": "view",
      "type": "function"
    },
    {
      "inputs": [
        {
          "internalType": "contract IERC20",
          "name": "_token",
          "type": "address"
        },
        {
          "internalType": "uint256",
          "name": "_redeemableAt",
          "type": "uint256"
        },
        {
          "internalType": "bytes32",
          "name": "_merkleRoot",
          "type": "bytes32"
        },
        {
          "internalType": "string",
          "name": "_uri",
          "type": "string"
        }
      ],
      "name": "createCampaign",
      "outputs": [
        {
          "internalType": "uint256",
          "name": "campaignId_",
          "type": "uint256"
        }
      ],
      "stateMutability": "nonpayable",
      "type": "function"
    },
    {
      "inputs": [],
      "name": "getCurrentCounter",
      "outputs": [
        {
          "internalType": "uint256",
          "name": "",
          "type": "uint256"
        }
      ],
      "stateMutability": "view",
      "type": "function"
    },
    {
      "inputs": [
        {
          "internalType": "uint256",
          "name": "_campaignId",
          "type": "uint256"
        },
        {
          "internalType": "address",
          "name": "_to",
          "type": "address"
        },
        {
          "internalType": "uint256",
          "name": "_rewardId",
          "type": "uint256"
        }
      ],
      "name": "hasClaimed",
      "outputs": [
        {
          "internalType": "bool",
          "name": "exist_",
          "type": "bool"
        }
      ],
      "stateMutability": "view",
      "type": "function"
    },
    {
      "inputs": [],
      "name": "owner",
      "outputs": [
        {
          "internalType": "address",
          "name": "",
          "type": "address"
        }
      ],
      "stateMutability": "view",
      "type": "function"
    },
    {
      "inputs": [],
      "name": "pause",
      "outputs": [],
      "stateMutability": "nonpayable",
      "type": "function"
    },
    {
      "inputs": [],
      "name": "paused",
      "outputs": [
        {
          "internalType": "bool",
          "name": "",
          "type": "bool"
        }
      ],
      "stateMutability": "view",
      "type": "function"
    },
    {
      "inputs": [
        {
          "internalType": "uint256",
          "name": "_campaignId",
          "type": "uint256"
        },
        {
          "internalType": "address",
          "name": "_to",
          "type": "address"
        },
        {
          "internalType": "uint256",
          "name": "_amount",
          "type": "uint256"
        },
        {
          "internalType": "uint256",
          "name": "_rewardId",
          "type": "uint256"
        },
        {
          "internalType": "bytes32[]",
          "name": "_proof",
          "type": "bytes32[]"
        }
      ],
      "name": "redeem",
      "outputs": [],
      "stateMutability": "nonpayable",
      "type": "function"
    },
    {
      "inputs": [],
      "name": "renounceOwnership",
      "outputs": [],
      "stateMutability": "nonpayable",
      "type": "function"
    },
    {
      "inputs": [
        {
          "internalType": "uint256",
          "name": "",
          "type": "uint256"
        },
        {
          "internalType": "address",
          "name": "",
          "type": "address"
        },
        {
          "internalType": "uint256",
          "name": "",
          "type": "uint256"
        }
      ],
      "name": "rewards",
      "outputs": [
        {
          "internalType": "uint256",
          "name": "",
          "type": "uint256"
        }
      ],
      "stateMutability": "view",
      "type": "function"
    },
    {
      "inputs": [
        {
          "internalType": "address",
          "name": "newOwner",
          "type": "address"
        }
      ],
      "name": "transferOwnership",
      "outputs": [],
      "stateMutability": "nonpayable",
      "type": "function"
    },
    {
      "inputs": [],
      "name": "unpause",
      "outputs": [],
      "stateMutability": "nonpayable",
      "type": "function"
    },
    {
      "inputs": [
        {
          "internalType": "uint256",
          "name": "_campaignId",
          "type": "uint256"
        },
        {
          "internalType": "contract IERC20",
          "name": "_token",
          "type": "address"
        },
        {
          "internalType": "uint256",
          "name": "_redeemableAt",
          "type": "uint256"
        },
        {
          "internalType": "bool",
          "name": "_paused",
          "type": "bool"
        },
        {
          "internalType": "bytes32",
          "name": "_merkleRoot",
          "type": "bytes32"
        },
        {
          "internalType": "string",
          "name": "_uri",
          "type": "string"
        }
      ],
      "name": "updateCampain",
      "outputs": [],
      "stateMutability": "nonpayable",
      "type": "function"
    },
    {
      "inputs": [
        {
          "internalType": "uint256",
          "name": "_campaignId",
          "type": "uint256"
        },
        {
          "internalType": "address",
          "name": "_to",
          "type": "address"
        }
      ],
      "name": "verify",
      "outputs": [
        {
          "internalType": "bool",
          "name": "",
          "type": "bool"
        }
      ],
      "stateMutability": "view",
      "type": "function"
    },
    {
      "inputs": [
        {
          "internalType": "contract IERC20",
          "name": "_quoteToken",
          "type": "address"
        },
        {
          "internalType": "uint256",
          "name": "_amount",
          "type": "uint256"
        }
      ],
      "name": "withdraw",
      "outputs": [],
      "stateMutability": "nonpayable",
      "type": "function"
    },
    {
      "stateMutability": "payable",
      "type": "receive"
    }
  ],
  "transactionHash": "0x1ebd96b48645e58f510abe935f9994ccdb33e1d9a5e5c0ad843518584623e8a2",
  "args": [],
  "numDeployments": 1,
  "solcInputHash": "bbd6b840d6e09f1711e38a2fb61ba2e3",
  "bytecode": "0x608060405234801561001057600080fd5b5061001a3361002c565b6000805460ff60a01b1916905561007c565b600080546001600160a01b038381166001600160a01b0319831681178455604051919092169283917f8be0079c531659141344cd1fd0a4f28419497f9722a3daafe3b4186f6b6457e09190a35050565b6117a38061008b6000396000f3fe6080604052600436106100f75760003560e01c80638456cb591161008a578063d7f2d0e711610059578063d7f2d0e7146102af578063ebfa62b9146102cf578063f2fde38b146102ef578063f3fef3a31461030f57600080fd5b80638456cb591461023c5780638da5cb5b14610251578063b2e65bc51461026f578063cb054d3e1461028f57600080fd5b806358f7f6d2116100c657806358f7f6d2146101b35780635c975abb146101f3578063715018a61461021257806373448c461461022757600080fd5b8063141961bc146101035780632f5dc3db1461013e5780633f4ba83a1461016e578063409ef8091461018557600080fd5b366100fe57005b600080fd5b34801561010f57600080fd5b5061012361011e36600461146d565b61032f565b6040516101359695949392919061164e565b60405180910390f35b34801561014a57600080fd5b5061015e6101593660046114b4565b6103fe565b6040519015158152602001610135565b34801561017a57600080fd5b506101836104c5565b005b34801561019157600080fd5b506101a56101a036600461140c565b61052e565b604051908152602001610135565b3480156101bf57600080fd5b506101db73eeeeeeeeeeeeeeeeeeeeeeeeeeeeeeeeeeeeeeee81565b6040516001600160a01b039091168152602001610135565b3480156101ff57600080fd5b50600054600160a01b900460ff1661015e565b34801561021e57600080fd5b50610183610603565b34801561023357600080fd5b506101a5610667565b34801561024857600080fd5b50610183610677565b34801561025d57600080fd5b506000546001600160a01b03166101db565b34801561027b57600080fd5b506101a561028a3660046114b4565b6106d9565b34801561029b57600080fd5b506101836102aa36600461158a565b610717565b3480156102bb57600080fd5b506101836102ca3660046114eb565b61083d565b3480156102db57600080fd5b5061015e6102ea366004611485565b610b4e565b3480156102fb57600080fd5b5061018361030a3660046113a9565b610b88565b34801561031b57600080fd5b5061018361032a3660046113e1565b610c6a565b60026020819052600091825260409091208054600182015492820154600383015460048401546005850180546001600160a01b03909516969560ff909416949293919261037b906116f1565b80601f01602080910402602001604051908101604052809291908181526020018280546103a7906116f1565b80156103f45780601f106103c9576101008083540402835291602001916103f4565b820191906000526020600020905b8154815290600101906020018083116103d757829003601f168201915b5050505050905086565b60008381526003602090815260408083206001600160a01b038616845282528083208054825181850281018501909352808352849383018282801561046257602002820191906000526020600020905b81548152602001906001019080831161044e575b5050505050905060005b81518110156104bb578382828151811061049657634e487b7160e01b600052603260045260246000fd5b602002602001015114156104a957600192505b806104b38161172c565b91505061046c565b50505b9392505050565b6000546001600160a01b031633146105245760405162461bcd60e51b815260206004820181905260248201527f4f776e61626c653a2063616c6c6572206973206e6f7420746865206f776e657260448201526064015b60405180910390fd5b61052c610d82565b565b600080546001600160a01b031633146105895760405162461bcd60e51b815260206004820181905260248201527f4f776e61626c653a2063616c6c6572206973206e6f7420746865206f776e6572604482015260640161051b565b50600180548082019091556000818152600260208181526040909220805473ffffffffffffffffffffffffffffffffffffffff19166001600160a01b03891617815560018101879055908101805460ff1916905560038101859055835190916105f9916005840191860190611289565b5050949350505050565b6000546001600160a01b0316331461065d5760405162461bcd60e51b815260206004820181905260248201527f4f776e61626c653a2063616c6c6572206973206e6f7420746865206f776e6572604482015260640161051b565b61052c6000610e28565b600061067260015490565b905090565b6000546001600160a01b031633146106d15760405162461bcd60e51b815260206004820181905260248201527f4f776e61626c653a2063616c6c6572206973206e6f7420746865206f776e6572604482015260640161051b565b61052c610e85565b6003602052826000526040600020602052816000526040600020818154811061070157600080fd5b9060005260206000200160009250925050505481565b6000546001600160a01b031633146107715760405162461bcd60e51b815260206004820181905260248201527f4f776e61626c653a2063616c6c6572206973206e6f7420746865206f776e6572604482015260640161051b565b8561077b60015490565b81106107c95760405162461bcd60e51b815260206004820152601760248201527f43616d706169676e20646f6573206e6f74206578697374000000000000000000604482015260640161051b565b6000878152600260208181526040909220805473ffffffffffffffffffffffffffffffffffffffff19166001600160a01b038a1617815560018101889055908101805460ff19168715151790556003810185905583519091610832916005840191860190611289565b505050505050505050565b600054600160a01b900460ff161561088a5760405162461bcd60e51b815260206004820152601060248201526f14185d5cd8589b194e881c185d5cd95960821b604482015260640161051b565b60008681526002602081905260409091200154869060ff16156108ef5760405162461bcd60e51b815260206004820152601660248201527f43616d706169676e206973206e6f742061637469766500000000000000000000604482015260640161051b565b6000878152600260205260409020600181015442116109505760405162461bcd60e51b815260206004820152601b60248201527f63616d706169676e206973206e6f742073746172746564207965740000000000604482015260640161051b565b61095b8888876103fe565b156109a85760405162461bcd60e51b815260206004820152600f60248201527f616c726561647920636c61696d65640000000000000000000000000000000000604482015260640161051b565b6040516bffffffffffffffffffffffff19606089901b16602082015260348101869052605481018790526000906074016040516020818303038152906040528051906020012090506000610a33868680806020026020016040519081016040528093929190818152602001838360200280828437600092019190915250505050600385015484610f0d565b905080610a825760405162461bcd60e51b815260206004820152601760248201527f6c656166206e6f7420696e206d65726b6c652074726565000000000000000000604482015260640161051b565b87836004016000828254610a9691906116a9565b909155505060008a81526003602090815260408083206001600160a01b03808e1685529083529083208054600181018255908452919092200188905583541673eeeeeeeeeeeeeeeeeeeeeeeeeeeeeeeeeeeeeeee14610b0a578254610b05906001600160a01b03168a8a610f23565b610b42565b6040516001600160a01b038a169089156108fc02908a906000818181858888f19350505050158015610b40573d6000803e3d6000fd5b505b50505050505050505050565b60008281526003602090815260408083206001600160a01b038516845290915281205415610b7e57506001610b82565b5060005b92915050565b6000546001600160a01b03163314610be25760405162461bcd60e51b815260206004820181905260248201527f4f776e61626c653a2063616c6c6572206973206e6f7420746865206f776e6572604482015260640161051b565b6001600160a01b038116610c5e5760405162461bcd60e51b815260206004820152602660248201527f4f776e61626c653a206e6577206f776e657220697320746865207a65726f206160448201527f6464726573730000000000000000000000000000000000000000000000000000606482015260840161051b565b610c6781610e28565b50565b6000546001600160a01b03163314610cc45760405162461bcd60e51b815260206004820181905260248201527f4f776e61626c653a2063616c6c6572206973206e6f7420746865206f776e6572604482015260640161051b565b60008111610d145760405162461bcd60e51b815260206004820152601760248201527f496e76616c696420776974686472617720616d6f756e74000000000000000000604482015260640161051b565b6001600160a01b03821673eeeeeeeeeeeeeeeeeeeeeeeeeeeeeeeeeeeeeeee14610d5057610d4c6001600160a01b0383163383610f23565b5050565b604051339082156108fc029083906000818181858888f19350505050158015610d7d573d6000803e3d6000fd5b505050565b600054600160a01b900460ff16610ddb5760405162461bcd60e51b815260206004820152601460248201527f5061757361626c653a206e6f7420706175736564000000000000000000000000604482015260640161051b565b6000805460ff60a01b191690557f5db9ee0a495bf2e6ff9c91a7834c1ba4fdd244a5e8aa4e537bd38aeae4b073aa335b6040516001600160a01b03909116815260200160405180910390a1565b600080546001600160a01b0383811673ffffffffffffffffffffffffffffffffffffffff19831681178455604051919092169283917f8be0079c531659141344cd1fd0a4f28419497f9722a3daafe3b4186f6b6457e09190a35050565b600054600160a01b900460ff1615610ed25760405162461bcd60e51b815260206004820152601060248201526f14185d5cd8589b194e881c185d5cd95960821b604482015260640161051b565b6000805460ff60a01b1916600160a01b1790557f62e78cea01bee320cd4e420270b5ea74000d11b0c9f74754ebdbfc544b05a258610e0b3390565b600082610f1a8584610f8a565b14949350505050565b604080516001600160a01b038416602482015260448082018490528251808303909101815260649091019091526020810180517bffffffffffffffffffffffffffffffffffffffffffffffffffffffff1663a9059cbb60e01b179052610d7d90849061100c565b600081815b8451811015611004576000858281518110610fba57634e487b7160e01b600052603260045260246000fd5b60200260200101519050808311610fe05760008381526020829052604090209250610ff1565b600081815260208490526040902092505b5080610ffc8161172c565b915050610f8f565b509392505050565b6000611061826040518060400160405280602081526020017f5361666545524332303a206c6f772d6c6576656c2063616c6c206661696c6564815250856001600160a01b03166110f19092919063ffffffff16565b805190915015610d7d578080602001905181019061107f91906113c5565b610d7d5760405162461bcd60e51b815260206004820152602a60248201527f5361666545524332303a204552433230206f7065726174696f6e20646964206e60448201527f6f74207375636365656400000000000000000000000000000000000000000000606482015260840161051b565b60606111008484600085611108565b949350505050565b6060824710156111805760405162461bcd60e51b815260206004820152602660248201527f416464726573733a20696e73756666696369656e742062616c616e636520666f60448201527f722063616c6c0000000000000000000000000000000000000000000000000000606482015260840161051b565b6001600160a01b0385163b6111d75760405162461bcd60e51b815260206004820152601d60248201527f416464726573733a2063616c6c20746f206e6f6e2d636f6e7472616374000000604482015260640161051b565b600080866001600160a01b031685876040516111f39190611632565b60006040518083038185875af1925050503d8060008114611230576040519150601f19603f3d011682016040523d82523d6000602084013e611235565b606091505b5091509150611245828286611250565b979650505050505050565b6060831561125f5750816104be565b82511561126f5782518084602001fd5b8160405162461bcd60e51b815260040161051b9190611696565b828054611295906116f1565b90600052602060002090601f0160209004810192826112b757600085556112fd565b82601f106112d057805160ff19168380011785556112fd565b828001600101855582156112fd579182015b828111156112fd5782518255916020019190600101906112e2565b5061130992915061130d565b5090565b5b80821115611309576000815560010161130e565b600082601f830112611332578081fd5b813567ffffffffffffffff8082111561134d5761134d61175d565b604051601f8301601f19908116603f011681019082821181831017156113755761137561175d565b8160405283815286602085880101111561138d578485fd5b8360208701602083013792830160200193909352509392505050565b6000602082840312156113ba578081fd5b81356104be81611773565b6000602082840312156113d6578081fd5b81516104be81611788565b600080604083850312156113f3578081fd5b82356113fe81611773565b946020939093013593505050565b60008060008060808587031215611421578182fd5b843561142c81611773565b93506020850135925060408501359150606085013567ffffffffffffffff811115611455578182fd5b61146187828801611322565b91505092959194509250565b60006020828403121561147e578081fd5b5035919050565b60008060408385031215611497578182fd5b8235915060208301356114a981611773565b809150509250929050565b6000806000606084860312156114c8578283fd5b8335925060208401356114da81611773565b929592945050506040919091013590565b60008060008060008060a08789031215611503578182fd5b86359550602087013561151581611773565b94506040870135935060608701359250608087013567ffffffffffffffff8082111561153f578384fd5b818901915089601f830112611552578384fd5b813581811115611560578485fd5b8a60208260051b8501011115611574578485fd5b6020830194508093505050509295509295509295565b60008060008060008060c087890312156115a2578182fd5b8635955060208701356115b481611773565b94506040870135935060608701356115cb81611788565b92506080870135915060a087013567ffffffffffffffff8111156115ed578182fd5b6115f989828a01611322565b9150509295509295509295565b6000815180845261161e8160208601602086016116c1565b601f01601f19169290920160200192915050565b600082516116448184602087016116c1565b9190910192915050565b6001600160a01b0387168152856020820152841515604082015283606082015282608082015260c060a0820152600061168a60c0830184611606565b98975050505050505050565b6020815260006104be6020830184611606565b600082198211156116bc576116bc611747565b500190565b60005b838110156116dc5781810151838201526020016116c4565b838111156116eb576000848401525b50505050565b600181811c9082168061170557607f821691505b6020821081141561172657634e487b7160e01b600052602260045260246000fd5b50919050565b600060001982141561174057611740611747565b5060010190565b634e487b7160e01b600052601160045260246000fd5b634e487b7160e01b600052604160045260246000fd5b6001600160a01b0381168114610c6757600080fd5b8015158114610c6757600080fdfea164736f6c6343000804000a",
  "devdoc": {
    "kind": "dev",
    "methods": {
      "owner()": {
        "details": "Returns the address of the current owner."
      },
      "paused()": {
        "details": "Returns true if the contract is paused, and false otherwise."
      },
      "renounceOwnership()": {
        "details": "Leaves the contract without owner. It will not be possible to call `onlyOwner` functions anymore. Can only be called by the current owner. NOTE: Renouncing ownership will leave the contract without an owner, thereby removing any functionality that is only available to the owner."
      },
      "transferOwnership(address)": {
        "details": "Transfers ownership of the contract to a new account (`newOwner`). Can only be called by the current owner."
      }
    },
    "version": 1
  },
  "userdoc": {
    "kind": "user",
    "methods": {
      "rewards(uint256,address,uint256)": {
        "notice": "Mapping of addresses who have claimed tokens from campaign"
      }
    },
    "version": 1
  },
  "storageLayout": {
    "storage": [
      {
        "astId": 7,
        "contract": "contracts/Erc20Airdrop.sol:Erc20Airdrop",
        "label": "_owner",
        "offset": 0,
        "slot": "0",
        "type": "t_address"
      },
      {
        "astId": 122,
        "contract": "contracts/Erc20Airdrop.sol:Erc20Airdrop",
        "label": "_paused",
        "offset": 20,
        "slot": "0",
        "type": "t_bool"
      },
      {
        "astId": 1619,
        "contract": "contracts/Erc20Airdrop.sol:Erc20Airdrop",
        "label": "_campaignIdCounter",
        "offset": 0,
        "slot": "1",
        "type": "t_struct(Counter)1434_storage"
      },
      {
        "astId": 1638,
        "contract": "contracts/Erc20Airdrop.sol:Erc20Airdrop",
        "label": "campaigns",
        "offset": 0,
        "slot": "2",
        "type": "t_mapping(t_uint256,t_struct(Campaign)1633_storage)"
      },
      {
        "astId": 1646,
        "contract": "contracts/Erc20Airdrop.sol:Erc20Airdrop",
        "label": "rewards",
        "offset": 0,
        "slot": "3",
        "type": "t_mapping(t_uint256,t_mapping(t_address,t_array(t_uint256)dyn_storage))"
      }
    ],
    "types": {
      "t_address": {
        "encoding": "inplace",
        "label": "address",
        "numberOfBytes": "20"
      },
      "t_array(t_uint256)dyn_storage": {
        "base": "t_uint256",
        "encoding": "dynamic_array",
        "label": "uint256[]",
        "numberOfBytes": "32"
      },
      "t_bool": {
        "encoding": "inplace",
        "label": "bool",
        "numberOfBytes": "1"
      },
      "t_bytes32": {
        "encoding": "inplace",
        "label": "bytes32",
        "numberOfBytes": "32"
      },
      "t_contract(IERC20)862": {
        "encoding": "inplace",
        "label": "contract IERC20",
        "numberOfBytes": "20"
      },
      "t_mapping(t_address,t_array(t_uint256)dyn_storage)": {
        "encoding": "mapping",
        "key": "t_address",
        "label": "mapping(address => uint256[])",
        "numberOfBytes": "32",
        "value": "t_array(t_uint256)dyn_storage"
      },
      "t_mapping(t_uint256,t_mapping(t_address,t_array(t_uint256)dyn_storage))": {
        "encoding": "mapping",
        "key": "t_uint256",
        "label": "mapping(uint256 => mapping(address => uint256[]))",
        "numberOfBytes": "32",
        "value": "t_mapping(t_address,t_array(t_uint256)dyn_storage)"
      },
      "t_mapping(t_uint256,t_struct(Campaign)1633_storage)": {
        "encoding": "mapping",
        "key": "t_uint256",
        "label": "mapping(uint256 => struct Erc20Airdrop.Campaign)",
        "numberOfBytes": "32",
        "value": "t_struct(Campaign)1633_storage"
      },
      "t_string_storage": {
        "encoding": "bytes",
        "label": "string",
        "numberOfBytes": "32"
      },
      "t_struct(Campaign)1633_storage": {
        "encoding": "inplace",
        "label": "struct Erc20Airdrop.Campaign",
        "members": [
          {
            "astId": 1622,
            "contract": "contracts/Erc20Airdrop.sol:Erc20Airdrop",
            "label": "token",
            "offset": 0,
            "slot": "0",
            "type": "t_contract(IERC20)862"
          },
          {
            "astId": 1624,
            "contract": "contracts/Erc20Airdrop.sol:Erc20Airdrop",
            "label": "redeemableAt",
            "offset": 0,
            "slot": "1",
            "type": "t_uint256"
          },
          {
            "astId": 1626,
            "contract": "contracts/Erc20Airdrop.sol:Erc20Airdrop",
            "label": "paused",
            "offset": 0,
            "slot": "2",
            "type": "t_bool"
          },
          {
            "astId": 1628,
            "contract": "contracts/Erc20Airdrop.sol:Erc20Airdrop",
            "label": "merkleRoot",
            "offset": 0,
            "slot": "3",
            "type": "t_bytes32"
          },
          {
            "astId": 1630,
            "contract": "contracts/Erc20Airdrop.sol:Erc20Airdrop",
            "label": "redeemedAmount",
            "offset": 0,
            "slot": "4",
            "type": "t_uint256"
          },
          {
            "astId": 1632,
            "contract": "contracts/Erc20Airdrop.sol:Erc20Airdrop",
            "label": "uri",
            "offset": 0,
            "slot": "5",
            "type": "t_string_storage"
          }
        ],
        "numberOfBytes": "192"
      },
      "t_struct(Counter)1434_storage": {
        "encoding": "inplace",
        "label": "struct Counters.Counter",
        "members": [
          {
            "astId": 1433,
            "contract": "contracts/Erc20Airdrop.sol:Erc20Airdrop",
            "label": "_value",
            "offset": 0,
            "slot": "0",
            "type": "t_uint256"
          }
        ],
        "numberOfBytes": "32"
      },
      "t_uint256": {
        "encoding": "inplace",
        "label": "uint256",
        "numberOfBytes": "32"
      }
    }
  }
}